:100000001C308A00AC2C00000A108A100A118207EA
:100010003034303400340A108A100A118207303428
:10002000313400340A108A100A1182073134303416
:1000300000340A108A100A11820731343134003436
:10004000C3376E37E531F4346F37A0225229A1103F
:1000500021000830F8000430F700F70B2D28871135
:10006000A0112008831687000330F700F70B36280D
:10007000D90D83120712031C43282016200883166B
:10008000870047288312201220088316870000006B
:100090008312A0152008831687008312871D4E281F
:1000A000F80B2B280430F700F70B54288711A01108
:1000B000200883168700000083122016200883166C
:1000C00087000330F700F70B63280330F700F70BC6
:1000D00067288312A0152008831687008312871DC6
:1000E0006F28F8010330F700F70B7428071A78140B
:1000F0008711A0112008831687008312071220128F
:100100002008831687008312080020162008831613
:1001100087000430F700F70B8B288312A015200806
:10012000831687000330F700F70B94288312071219
:1001300020122008831687000430F700F70B9E2852
:1001400083128711A011200883168700D030D900B0
:100150008312292083165408D9008312292083167C
:100160005508D90083122920201220088316870001
:1001700000008312A0152008831687008312871DB4
:10018000BF280430F700F70BC328C628000020164C
:100190002008831687000430F700F70BCD28831260
:1001A0000800D5308400831300080319E4280630C2
:1001B000F800F701F70BDA28F80BD9287B30F700A5
:1001C000F70BE028800BD72808006B308316D4008B
:1001D0008030D5008312852005308316D500831228
:1001E000D1206B308316D400D501831285201930BD
:1001F0008316D4000730D500831285201A30831669
:10020000D400D501831285201B308316D400D5017C
:10021000831285201C308316D400D50183128520DB
:100220006A308316D400D501831285206B30831683
:10023000D4000130D500831285200A308316D50002
:100240008312D1208A150A163C2D08308316DA0055
:100250007708DB00831220162008831687000330FE
:10026000F700F70B31298312A015200883168700A9
:100270008312871D3929071A0314071E0310F80D6E
:100280000430F700F70B4229A011200883168700DD
:10029000831287118316DA0B2A298312201620086D
:1002A000831687000330F700F70B542983120712D7
:1002B00083165B0803196129831220122008831614
:1002C000870000008312A015200883168700831280
:1002D000871D68290430F700F70B6C298711A011DE
:1002E0002008831687000330F700F70B7529831267
:1002F0000712201220088316870083120800201698
:100300002008831687000430F700F70B8529831235
:10031000A0152008831687000330F700F70B8E29FD
:100320008312071220122008831687000430F7007A
:10033000F70B982983128711A011200883168700D4
:10034000D030D9008312292083165408D900831293
:10035000292020162008831687000430F700F70BA9
:10036000AF298312A0152008831687000330F700F9
:10037000F70BB8298312871DBB290712201220080A
:10038000831687000430F700F70BC4298312871106
:10039000A011200883168700D130D90083122920AC
:1003A000F701252178088316D50083122012200832
:1003B0008316870000008312A0152008831687008B
:1003C0008312871DE1290430F700F70BE529E8299E
:1003D000000020162008831687000430F700F70B72
:1003E000EF295508F80083128A150A16522D0B08BA
:1003F0008316D40083128B13831603178C170C14E7
:10040000000000000313D41F082A83128B178316E1
:10041000831203170C087F3903196B2A8316031301
:10042000D400831203170D0883160313D50083121B
:1004300003170F0883160313D600540883120C1EEB
:100440001F2A990083165508831203178D008316FF
:1004500003135608831203178F0003130B08831628
:10046000D70083128B13831603178C170C1400000C
:1004700000000313D71F3F2A83128B1783168312A2
:1004800003170C0D0E0D7F3903196B2A8316031306
:10049000D400831203170D0883160313D5008312AB
:1004A00003170F0883160313D600540883120C1E7B
:1004B000572A990083165508831203178D00831657
:1004C00003135608831203178F008D0A03198F0A2E
:1004D0000313F729031703138A150A16652D103025
:1004E0008316DC00F701FA01D90CD80C031C7E2A14
:1004F0005A08F7070318FA0A5B08FA07FA0CF70C10
:10050000F90CF80CDC0B742A83120800F801F901CD
:10051000F701FA0183165B08031D912A5A08031993
:10052000AB2A1030DC000310D80DD90DF70DFA0DF1
:100530005B087A02031D9E2A5A087702031CA72A29
:100540005A08F702031CFA035B08FA020314F80DB9
:10055000F90DDC0B932A831208000030F8001F0805
:10056000C73978049F001F151F19B42A83161E0867
:100570008312B9001E08BA0052083A02031C192B54
:10058000031DC62A51083902031C192B4D084F02BE
:100590008316D400831250088316D50083124E08A8
:1005A000031C4E0FD42AD72A8316D5028312510872
:1005B0003902F7003A08FA005208031C520FFA02F7
:1005C00077088316D6007A08D7005508D900540852
:1005D000D8005708DB005608DA0083126F2279082A
:1005E0008316D5007808D400831251085302F7000F
:1005F0005408FA005208031C520FFA0277088316B7
:10060000D6007A08D7005508D9005408D8005708F2
:10061000DB005608DA00831286227908FA0078088F
:100620004D07C3004E08C4007A0803187A0FC407A8
:10063000692B4D084F028316D4008312500883168D
:10064000D50083124E08031C4E0F272B2A2B83162E
:10065000D502831239085102F7005208FA003A080D
:10066000031C3A0FFA0277088316D6007A08D700DF
:100670005508D9005408D8005708DB005608DA009E
:1006800083126F2279088316D5007808D40083126C
:1006900051085302F7005408FA005208031C520F85
:1006A000FA0277088316D6007A08D7005508D900D1
:1006B0005408D8005708DB005608DA008312862257
:1006C00078084D02C3004E08C4007908031C790F56
:1006D000C40201308316D5008312D1200830F800FF
:1006E0001F08C73978049F001F151F19752B831623
:1006F0001E088312BB001E08BC0056083C02031CE7
:10070000DA2B031D872B55083B02031CDA2B4D08FF
:100710004F028316D400831250088316D50083122B
:100720004E08031C4E0F952B982B8316D50283126F
:1007300055083B02F7003C08FA005608031C560F08
:10074000FA0277088316D6007A08D7005508D90030
:100750005408D8005708DB005608DA0083126F22CD
:1007600079088316D5007808D400831255085702FB
:10077000F7005808FA005608031C560FFA027708CB
:100780008316D6007A08D7005508D9005408D80037
:100790005708DB005608DA00831286227908FA002F
:1007A00078084D07C5004E08C6007A0803187A0F6E
:1007B000C6072A2C4D084F028316D4008312500816
:1007C0008316D50083124E08031C4E0FE82BEB2B2B
:1007D0008316D50283123B085502F7005608FA002B
:1007E0003C08031C3C0FFA0277088316D6007A08EF
:1007F000D7005508D9005408D8005708DB00560820
:10080000DA0083126F2279088316D5007808D400A5
:10081000831255085702F7005808FA005608031CBF
:10082000560FFA0277088316D6007A08D7005508C3
:10083000D9005408D8005708DB005608DA008312A4
:10084000862278084D02C5004E08C6007908031CB0
:10085000790FC60201308316D5008312D1201030E3
:10086000F8001F08C73978049F001F151F19362C80
:1008700083161E088312BF001E08C0005A084002DB
:10088000031C9B2C031D482C59083F02031C9B2C66
:100890004D084F028316D400831250088316D500EA
:1008A00083124E08031C4E0F562C592C8316D5026A
:1008B000831259083F02F7004008FA005A08031C47
:1008C0005A0FFA0277088316D6007A08D70055081F
:1008D000D9005408D8005708DB005608DA00831204
:1008E0006F2279088316D5007808D400831259083E
:1008F0005B02F7005C08FA005A08031C5A0FFA0260
:1009000077088316D6007A08D7005508D90054080E
:10091000D8005708DB005608DA00831286227908CF
:10092000FA0078084D07C7004E08C8007A08031877
:100930007A0FC807EB2C4D084F028316D4008312A0
:1009400050088316D50083124E08031C4E0FA92CA5
:10095000AC2C8316D50283123F085902F7005A08BF
:10096000FA004008031C400FFA0277088316D600ED
:100970007A08D7005508D9005408D8005708DB007A
:100980005608DA0083126F2279088316D50078089A
:10099000D400831259085B02F7005C08FA005A0879
:1009A000031C5A0FFA0277088316D6007A08D7007C
:1009B0005508D9005408D8005708DB005608DA005B
:1009C0008312862278084D02C7004E08C8007908B5
:1009D000031C790FC80201308316D5008312D12081
:1009E0001830F8001F08C73978049F001F151F1919
:1009F000F72C83161E088312BD001E08BE005E0879
:100A00003E02031C5C2D031D092D5D083D02031CE5
:100A10005C2D4D084F028316D400831250088316B4
:100A2000D50083124E08031C4E0F172D1A2D831666
:100A3000D50283125D083D02F7003E08FA005E0809
:100A4000031C5E0FFA0277088316D6007A08D700D7
:100A50005508D9005408D8005708DB005608DA00BA
:100A600083126F2279088316D5007808D400831288
:100A70005D085F02F7006008FA005E08031C5E0F65
:100A8000FA0277088316D6007A08D7005508D900ED
:100A90005408D8005708DB005608DA008312862273
:100AA0007908FA0078084D07C9004E08CA007A088C
:100AB00003187A0FCA07AC2D4D084F028316D400D5
:100AC000831250088316D50083124E08031C4E0F64
:100AD0006A2D6D2D8316D50283123D085D02F70045
:100AE0005E08FA003E08031C3E0FFA0277088316E0
:100AF000D6007A08D7005508D9005408D8005708FE
:100B0000DB005608DA0083126F2279088316D500BD
:100B10007808D40083125D085F02F7006008FA00CD
:100B20005E08031C5E0FFA0277088316D6007A0867
:100B3000D7005508D9005408D8005708DB005608DC
:100B4000DA008312862278084D02C9004E08CA00D6
:100B50007908031C790FCA0201308316D50083126D
:100B6000D1202030F8001F08C73978049F001F15D6
:100B70001F19B82D83161E088312C1001E08C2005B
:100B800062084202031C1D2E031DCA2D610841028A
:100B9000031C1D2E4D084F028316D40083125008EB
:100BA0008316D50083124E08031C4E0FD82DDB2D63
:100BB0008316D502831261084102F7004208FA0049
:100BC0006208031C620FFA0277088316D6007A08BF
:100BD000D7005508D9005408D8005708DB0056083C
:100BE000DA0083126F2279088316D5007808D400C2
:100BF000831261086302F7006408FA006208031CAC
:100C0000620FFA0277088316D6007A08D7005508D3
:100C1000D9005408D8005708DB005608DA008312C0
:100C200086227908FA0078084D07CB004E08CC00E0
:100C30007A0803187A0FCC076D2E4D084F028316E1
:100C4000D400831250088316D50083124E08031C6B
:100C50004E0F2B2E2E2E8316D502831241086102D1
:100C6000F7006208FA004208031C420FFA027708F4
:100C70008316D6007A08D7005508D9005408D80042
:100C80005708DB005608DA0083126F2279088316B2
:100C9000D5007808D400831261086302F700640865
:100CA000FA006208031C620FFA0277088316D60066
:100CB0007A08D7005508D9005408D8005708DB0037
:100CC0005608DA008312862278084D02CB004E08BF
:100CD000CC007908031C790FCC0201308316D500B3
:100CE0008312D1208A150A166D2D8316D601D501DF
:100CF000D801D701831220162008831687000430FC
:100D0000F700F70B812E8312A015200883168700A9
:100D10000330F700F70B8A2E8312071220122008E7
:100D2000831687000430F700F70B942E8312871187
:100D3000A011200883168700D030D9008312292003
:100D400083165408D9008312292020162008831600
:100D500087000430F700F70BAB2E8312A015200894
:100D6000831687000330F700F70BB42E8312871D1C
:100D7000B72E071220122008831687000430F700D0
:100D8000F70BC02E83128711A0112008831687004D
:100D9000D130D900831229200130F7002521831694
:100DA000D6017808D500F701831225218316D801D2
:100DB0007808D700831220122008831687000000CD
:100DC0008312A0152008831687008312871DE62E44
:100DD0000430F700F70BEA2EED2E00002016200855
:100DE000831687000430F700F70BF42ED901590859
:100DF0005704F70055085804FA007708F8007A08F5
:100E0000F900831208008E30F70083165508F800A9
:100E10005408F900FA01D51F122FF809F909F90A47
:100E20000319F80AF808031D1F2F7908F800F901C3
:100E30000830F702F808031D1F2FF701282F0310B1
:100E4000F81B262FF90DF80DF7031F2FD51FF813E8
:100E500083120800031719080319F02FA5001D08B5
:100E60000319F02FA502031C3A2F7F30A5070318A2
:100E7000F02F402F8130A502031CF02F0319F02F13
:100E80002508F700F801F901FA01A4011A08A300E6
:100E9000A3171B08A2001C08A1001930A5002008F8
:100EA000A1020318632F0130A2020318632FA302CB
:100EB0000318632FA4020318632FA40AA30AA20A2B
:100EC0002008A107952F1F08A20203187E2F0130CA
:100ED000A30203187E2FA40203187E2FA40AA30ADC
:100EE0001F08A2072008A107031C952FA20A031DB3
:100EF000952FA30A031D952FA40A952F1E0880384D
:100F0000A3020318942F0130A4020318942FA40AFB
:100F10001E088038A3071F08A207031C722FA30A0C
:100F2000031D722FA40A722F7A14A50B982FA32FDA
:100F30000310A10DA20DA30DA40D0310FA0DF90DC0
:100F4000F80DA60D4F2F261CAB2F0310F80CF90C33
:100F5000FA0CA60CAE2FF7030319F02FA61BD72F00
:100F60000310A10DA20DA30DA40D2008A1020318CA
:100F7000C32F0130A2020318C32FA3020318C32FEB
:100F8000A402031CE62F1F08A2020318CE2F013073
:100F9000A3020318CE2FA402031CE62F1E088038DC
:100FA000A3020318D72F0130A402031CE62FFA0A6C
:100FB000031DE62FF90A031DE62FF80A031DE62F8D
:100FC000F70A0319F02FF80CF90CFA0C1A08A5000F
:100FD0001E08A506A51FEE2FF817F42FF813F42FFF
:0C0FE000F701F801F901FA010313080001
:101000008030831C062803179E0603130317A301D1
:10101000A4011A08A2001E08A20619080319F42840
:10102000A100F7001D080319FD28A1020319992842
:10103000031C57281E08A700A7171F08A600200892
:10104000A500A4010310A70CA60CA50CA40CA10BD1
:101050002128A21F2E282314112923102110231622
:101060001C308400831726292312A21B4128211C2F
:101070004C28A70CA60CA50CA40CF70A03190C29E4
:101080004C28A71B4F280310A40DA50DA60DA70DD6
:10109000F70303190C2941282317B92823131A0829
:1010A000A200A21F5528A7170529A71305291D0867
:1010B000A100F7001908A1021A08A700A7171B082A
:1010C000A6001C08A500A4010310A70CA60CA50CE3
:1010D000A40CA10B6328A21F7028A3141129A3102C
:1010E0002110A3162030840083172629A312A21BE7
:1010F0008328211C8E28A70CA60CA50CA40CF70A8B
:1011000003190C298E28A71B91280310A40DA50DE7
:10111000A60DA70DF70303190C298328A317B928D7
:10112000A3131E08A200A21F9728A7170529A7131B
:1011300005291E08A700A7171F08A6002008A5005C
:10114000A21FA628A713231511292311A4012110DA
:101150001C30840083172629A21BCF281A08A2005E
:10116000211CB928A70CA60CA50CA40CF70A03197E
:101170000C29A41FCA28A50A031DCA28A60A031DF4
:10118000CA28A70A031DCA28A70CA60CA50CF70A93
:1011900003190C29231B4E28A31B9028EE2880300E
:1011A000A706A71FD72811291E08A200E4281A089D
:1011B000A200A708031DE428A608031DE428A5082B
:1011C000031DE428F7010529A71BEE280310A40D31
:1011D000A50DA60DA70DF70BE4280C29A21FF228D8
:1011E000A7170529A71305291D08F7001E08A70042
:1011F0001F08A6002008A50005291908F7001A08ED
:10120000A7001B08A6001C08A5002708F800260850
:10121000F9002508FA004429F701F801F901FA015B
:101220004429A401A509A609A709A409A40A031D24
:101230001F29A50A031D1F29A60A0319A70A231897
:101240002D28A3186F282319A528D4280008A5073E
:10125000031C3029A60A031D3029A70A03192114EB
:1012600084030008A607031C3829A70A03192114C0
:1012700084030008801F803AA70703182114231A4B
:101280003428A31A7628AC2803130800031719087A
:101290000319B729A1001D080319B729A1070318CD
:1012A00058297F30A102031CB7290319B7295C29EB
:1012B0008130A1070318B7292108F700F801F901C7
:1012C000FA011A08A500A5171B08A4001C08A30012
:1012D0001830A100A201231C85292008FA07031C4D
:1012E0007729F90A031D7729F80A0319A2171F089D
:1012F000F907031C7E29F80A0319A2171E089B0090
:101300009B171B08F8070318A217A20DF80CF90C7D
:10131000FA0CA50CA40CA30C0310A10B6A29013034
:10132000F7070318B729F81B9C29A50DFA0DF90D2D
:10133000F80DF7030319B729A51FAD29FA0A031DF4
:10134000AD29F90A031DAD29F80A031DAD29F80CD2
:10135000F90CFA0CF70A0319B7291A08A2001E089B
:10136000A206A21FB529F817BB29F813BB29F7015C
:10137000F801F901FA0103130800031716089D008C
:101380001A089D069D1FC92903110310961B0314FB
:10139000FC2916089D0019089E0015089E020319D5
:1013A000D7299D1FFC290308013A8300FC291A084C
:1013B0009E0016089E020319E3299D1FFC290308BD
:1013C000013A8300FC291B089E0017089E0203199E
:1013D000EF299D1FFC290308013A8300FC291C0802
:1013E0009E0018089E020319FB299D1FFC29030873
:1013F000013A8300FC2903100313080083166E10C2
:10140000EE106508E9006408E8006308E700620878
:10141000E600650883120317980083160313640817
:1014200083120317970083160313630883120317AD
:1014300096008316031362088312031795009C011C
:101440009B019A0199010313BD21031C2D2A8316C8
:101450006E146708803AE70083120317980197011A
:1014600096017F30950083160313690883120317D2
:101470009C00831603136808831203179B008316CE
:1014800003136708831203179A0083160313660871
:101490008312031799000313BD21031C7C2A031731
:1014A0009C019B019A017F30990083160313690800
:1014B00083120317A000831603136808831203170F
:1014C0009F00831603136708831203179E00831679
:1014D00003136608831203179D008A1103132A273A
:1014E0008A157A088316E9007908E8007808E70089
:1014F0007708E600EE1483120A3003179C00893047
:101500009B0034309A007C309900831603136908DD
:1015100083120317A00083160313680883120317AE
:101520009F00831603136708831203179E00831618
:1015300003136608831203179D00031346217A08DC
:1015400003179700790896007808950077089400AB
:1015500017089C0016089B0015089A0014089900AB
:1015600083160313690883120317A000831603135D
:101570006808831203179F008316031367088312FA
:1015800003179E00831603136608831203179D003A
:10159000031346217A080317970079089600780804
:1015A000950077089400831017089C0016089B008C
:1015B00015089A00140899007C30A00079309F002B
:1015C00035309E0081309D00031300207A08831679
:1015D000ED007908EC007808EB007708EA006D0868
:1015E000831203179C00831603136C0883120317DE
:1015F0009B00831603136B08831203179A0083164C
:1016000003136A08831203179900831603136908EA
:1016100083120317A00083160313680883120317AD
:101620009F00831603136708831203179E00831617
:1016300003136608831203179D00031346217A08DB
:1016400003179700790896007808950077089400AA
:1016500017089C0016089B0015089A0014089900AA
:1016600083160313690883120317A000831603135C
:101670006808831203179F008316031367088312F9
:1016800003179E00831603136608831203179D0039
:10169000031346217A080317970079089600780803
:1016A000950077089400831017089C0016089B008B
:1016B00015089A00140899003F30A00002309F00DE
:1016C00033309E0083309D00031300207A08831678
:1016D000ED007908EC007808EB007708EA006D0867
:1016E000831203179C00831603136C0883120317DD
:1016F0009B00831603136B08831203179A0083164B
:1017000003136A08831203179900831603136908E9
:1017100083120317A00083160313680883120317AC
:101720009F00831603136708831203179E00831616
:1017300003136608831203179D00031346217A08DA
:1017400003179700790896007808950077089400A9
:1017500017089C0016089B0015089A0014089900A9
:1017600083160313690883120317A000831603135B
:101770006808831203179F008316031367088312F8
:1017800003179E00831603136608831203179D0038
:10179000031346217A080317970079089600780802
:1017A000950077089400831017089C0016089B008A
:1017B00015089A00140899003330A0008C309F005F
:1017C0001E309E0083309D00031300207A0883168C
:1017D000ED007908EC007808EB007708EA00831246
:1017E00003179C019B019A017F3099008316031314
:1017F000690883120317A000831603136808831275
:1018000003179F00831603136708831203179E00B4
:10181000831603136608831203179D0003134621E2
:101820007A080317970079089600780895007708DA
:10183000940017089C0016089B0015089A001408CD
:10184000990083160313690883120317A0008316F7
:1018500003136808831203179F0083160313670896
:10186000831203179E00831603136608831203175F
:101870009D00031346217A08031797007908960004
:101880007808950077089400831017089C001608C4
:101890009B0015089A00140899001B30A000E43042
:1018A0009F0035309E0082309D00031300207A088F
:1018B0000317930079089200780891007708900048
:1018C00013089C0012089B0011089A001008990048
:1018D00083160313690883120317A00083160313EA
:1018E0006808831203179F00831603136708831287
:1018F00003179E00831603136608831203179D00C7
:10190000031346217A080317970079089600780890
:1019100095007708940017089C0016089B0015088E
:101920009A00140899008316031369088312031799
:10193000A000831603136808831203179F00831601
:1019400003136708831203179E00831603136608A8
:10195000831203179D00031346217A08031797008B
:101960007908960078089500770894008310170886
:101970009C0016089B0015089A0014089900A430D2
:10198000A000DB309F0067309E0083309D00031372
:1019900000207A08031793007908920078089100D4
:1019A0007708900013089C0012089B0011089A0009
:1019B0001008990083160313690883120317A00007
:1019C000831603136808831203179F0083160313FB
:1019D0006708831203179E00831603136608831299
:1019E00003179D00031346217A080317970079080F
:1019F0009600780895007708940017089C00160850
:101A00009B0015089A0014089900831603136908AF
:101A100083120317A00083160313680883120317A9
:101A20009F00831603136708831203179E00831613
:101A300003136608831203179D00031346217A08D7
:101A400003179700790896007808950077089400A6
:101A5000831017089C0016089B0015089A001408AC
:101A600099003330A0008C309F001E309E008330E0
:101A70009D00031300207A08031793007908920051
:101A80007808910077089000831603136908831281
:101A900003179C00831603136808831203179B0027
:101AA000831603136708831203179A008316031320
:101AB0006608831203179900831603136D088312B7
:101AC0000317A000831603136C08831203179F00EB
:101AD000831603136B08831203179E0083160313E8
:101AE0006A08831203179D00031346217A0803171F
:101AF00097007908960078089500770894001708F1
:101B00009C0016089B0015089A00140899001308F9
:101B1000A00012089F0011089E0010089D008A1165
:101B200003132A278A157A088316ED007908EC003A
:101B30007808EB007708EA00EE1CCC2D8314DB302C
:101B4000831203179C000F309B0049309A007F30AE
:101B50009900831603136D0883120317A0008316E0
:101B600003136C08831203179F00831603136B087B
:101B7000831203179E00831603136A088312031748
:101B80009D00031300207A088316ED007908EC000D
:101B90007808EB007708EA006E1CD12D6B08803ABC
:101BA000EB006A08F7006B08F8006C08F9006D0894
:101BB000FA008312080083166010E10157088312AF
:101BC0000317980083160313560883120317970010
:101BD0008316031355088312031796008316031305
:101BE00054088312031795009C019B019A019901E7
:101BF0000313BD210318FE2D031D232E83165B083E
:101C0000831203179800831603135A0883120317CD
:101C1000970083160313590883120317960083163F
:101C2000031358088312031795009C019B019A0126
:101C300099010313BD2103181F2E031D212E03300C
:101C4000222E0430452E83165B088312031798005A
:101C5000831603135A08831203179700831603137E
:101C6000590883120317960083160313580883122A
:101C7000031795009C019B019A0199010313BD2153
:101C8000031C442E0230452E01308316E100570814
:101C90008312031798008316031356088312031741
:101CA00097008316031355088312031796008316B3
:101CB000031354088312031795009C019B019A019A
:101CC00099010313BD21031C6B2E83166014550864
:101CD000803AD500831283165B088312031798009D
:101CE000831603135A0883120317970083160313EE
:101CF000590883120317960083160313580883129A
:101D0000031795009C019B019A0199010313BD21C2
:101D1000031C8F2E83165908803AD900831283162C
:101D20005B08831203179800831603135A08831263
:101D3000031797008316031359088312031796009D
:101D40008316031358088312031795009C019B0107
:101D50009A0199010313BD21031DE52E831657082F
:101D60008312031798008316031356088312031770
:101D700097008316031355088312031796008316E2
:101D8000031354088312031795009C019B019A01C9
:101D900099010313BD210319E42E8316601CDA2E6A
:101DA0007F30F700C930F8000F30F900DB30FA005F
:101DB000BE2FE32E7F30F7004930F8000F30F900D6
:101DC000DB30FA00BE2F8312BD2F83165708831213
:101DD00003179C00831603135608831203179B00F6
:101DE000831603135508831203179A0083160313EF
:101DF0005408831203179900831603135B08831298
:101E00000317A000831603135A08831203179F00B9
:101E1000831603135908831203179E0083160313B6
:101E20005808831203179D008A1103132A278A1565
:101E30007A088316DF007908DE007808DD0077086D
:101E4000DC0001306102FC3E0318BE2F043E831209
:101E5000C02F83165F08E5005E08E4005D08E3001C
:101E60005C08E2008312FE218316BE2FBE2F831270
:101E700083165F08E5005E08E4005D08E3005C0887
:101E8000E2008312FE218316E3010408E2006310DE
:101E9000831B63148314DB30831203179C000F3001
:101EA0009B0049309A00803099007A08A000790898
:101EB0009F0078089E0077089D000313002083167A
:101EC00062088400831363188317BE2FBE2F83120A
:101ED00083165F08E5005E08E4005D08E3005C0827
:101EE000E2008312FE217A088316E5007908E400F7
:101EF0007808E3007708E200E7010408E6006710CD
:101F0000831B671483146508831203179C008316D0
:101F100003136408831203179B00831603136308DB
:101F2000831203179A0083160313620883120317A0
:101F30009900DB30A0000F309F0049309E008030B8
:101F40009D0003130020831666088400831367181E
:101F50008317BE2FBE2F831283165F08E5005E082D
:101F6000E4005D08E3005C08E2008312FE2180309B
:101F7000F8068316BE2FBE2F831283168312080025
:101F80000A148A140A158207292F382F682FAC2FBC
:101F900080080319E52F8316D5010408D4005510D5
:101FA000831B5514000883120C1ED42F990083162E
:101FB00054088400831355188317840A031DE32FE4
:101FC0008312850A83168312C82F8A150A160D2ECE
:102000003B308316D4000A12831275260A1679080B
:10201000E6007808E50001308316D5000A12831225
:10202000D1200A163D308316D4000A128312752679
:102030000A167908E8007808E70001308316D50011
:102040000A128312D1200A163F308316D4000A12D6
:10205000831275260A167908EA007808E90001302B
:102060008316D5000A128312D1200A166608831639
:10207000D500831265088316D4000A128312032741
:102080000A167A088316D7007908D6007808D50092
:102090007708D4005708831203179C008316031394
:1020A0005608831203179B008316031355088312E7
:1020B00003179A0083160313540883120317990019
:1020C000A0019F019E018C309D000A1203132A2754
:1020D0000A167A08F6007908F5007808F4007708FF
:1020E000F300831483162B08831203179C008316B6
:1020F00003132A08831203179B008316031329086E
:10210000831203179A0083160313280883120317F8
:10211000990083160313270883120317A000831660
:1021200003132608831203179F0083160313250841
:10213000831203179E0083160313240883120317C8
:102140009D000A128A15031300200A168A117A08C4
:102150008316D7007908D6007808D5007708D40010
:1021600083147608831203179C0075089B0074087B
:102170009A0073089900831603132F08831203171C
:10218000A000831603132E08831203179F008316E3
:1021900003132D08831203179E00831603132C08C4
:1021A000831203179D000A128A15031300200A16D2
:1021B0008A1183165708831203179C008316031392
:1021C0005608831203179B008316031355088312C6
:1021D00003179A00831603135408831203179900F8
:1021E0007A08A00079089F0078089E0077089D0073
:1021F0000A128A15031346210A168A117A088316D1
:10220000D7007908D6007808D5007708D400831461
:102210003308831203179C008316031332088312BA
:1022200003179B00831603133108831203179A00C8
:1022300083160313300883120317990083160313C0
:102240002F0883120317A000831603132E0883128E
:1022500003179F00831603132D08831203179E0094
:10226000831603132C08831203179D000A128A1584
:10227000031300200A168A118316570883120317C6
:102280009C00831603135608831203179B008316C2
:1022900003135508831203179A0083160313540877
:1022A0008312031799007A08A00079089F00780824
:1022B0009E0077089D000A1203132A270A1683102E
:1022C00083162708831203179C008316031326081E
:1022D000831203179B008316031325088312031729
:1022E0009A008316031324088312031799007A08AF
:1022F000A00079089F0078089E0077089D000A12C8
:102300008A15031300200A168A117A08F600790844
:10231000F5007808F4007708F30001308316D50043
:102320000A128312D1200A1668088316D500831278
:1023300067088316D4000A12831203270A167A0844
:102340008316D7007908D6007808D5007708D4001E
:102350005708831203179C00831603135608831231
:1023600003179B00831603135508831203179A0063
:10237000831603135408831203179900A0019F01C9
:102380009E018C309D000A1203132A270A167A0830
:10239000FE007908FD007808FC007708FB00831434
:1023A00083162B08831203179C00831603132A0835
:1023B000831203179B008316031329088312031744
:1023C0009A008316031328088312031799008316B3
:1023D0000313270883120317A0008316031326088C
:1023E000831203179F008316031325088312031714
:1023F0009E00831603132408831203179D000A12FC
:102400008A15031300200A168A117A088316D7004A
:102410007908D6007808D5007708D40083147E08A0
:10242000831203179C007D089B007C089A007B08A0
:10243000990083160313370883120317A00083162D
:1024400003133608831203179F00831603133508FE
:10245000831203179E008316031334088312031795
:102460009D000A128A15031300200A168A1183168A
:102470005708831203179C00831603135608831210
:1024800003179B00831603135508831203179A0042
:102490008316031354088312031799007A08A000C7
:1024A00079089F0078089E0077089D000A128A1517
:1024B000031346210A168A117A088316D700790871
:1024C000D6007808D5007708D40083143B0883121F
:1024D00003179C00831603133A08831203179B000B
:1024E000831603133908831203179A008316031304
:1024F00038088312031799008316031337088312D1
:102500000317A000831603133608831203179F00D6
:10251000831603133508831203179E0083160313D3
:102520003408831203179D000A128A150313002032
:102530000A168A1183165708831203179C00831604
:1025400003135608831203179B00831603135508C1
:10255000831203179A008316031354088312031778
:1025600099007A08A00079089F0078089E007708F3
:102570009D000A1203132A270A16831083162708C0
:10258000831203179C008316031326088312031774
:102590009B00831603132508831203179A008316E2
:1025A000031324088312031799007A08A0007908FE
:1025B0009F0078089E0077089D000A128A15031371
:1025C00000200A168A117A08FE007908FD007808B2
:1025D000FC007708FB0001308316D5000A12831235
:1025E000D1200A166A088316D5008312690883165B
:1025F000D4000A12831203270A167A088316D7001A
:102600007908D6007808D5007708D40057088312D7
:1026100003179C00831603135608831203179B00AD
:10262000831603135508831203179A0083160313A6
:102630005408831203179900A0019F019E018C305A
:102640009D000A1203132A270A167A088316A3008C
:102650007908A2007808A1007708A00083142B084D
:10266000831203179C00831603132A08831203178F
:102670009B00831603132908831203179A008316FD
:1026800003132808831203179900831603132708DE
:1026900083120317A000831603132608831203175F
:1026A0009F00831603132508831203179E008316C9
:1026B00003132408831203179D000A128A150313BB
:1026C00000200A168A117A088316D7007908D600E6
:1026D0007808D5007708D4008314230883120317E1
:1026E0009C00831603132208831203179B00831692
:1026F00003132108831203179A008316031320087B
:10270000831203179900831603133F0883120317DC
:10271000A000831603133E08831203179F0083163D
:1027200003133D08831203179E00831603133C080E
:10273000831203179D000A128A15031300200A163C
:102740008A1183165708831203179C0083160313FC
:102750005608831203179B00831603135508831230
:1027600003179A0083160313540883120317990062
:102770007A08A00079089F0078089E0077089D00DD
:102780000A128A15031346210A168A117A0883163B
:10279000D7007908D6007808D5007708D4008314CC
:1027A0004308831203179C00831603134208831205
:1027B00003179B00831603134108831203179A0023
:1027C000831603134008831203179900831603131B
:1027D0003F0883120317A000831603133E088312D9
:1027E00003179F00831603133D08831203179E00EF
:1027F000831603133C08831203179D000A128A15DF
:10280000031300200A168A11831657088312031730
:102810009C00831603135608831203179B0083162C
:1028200003135508831203179A00831603135408E1
:102830008312031799007A08A00079089F0078088E
:102840009E0077089D000A1203132A270A16831098
:1028500083162708831203179C0083160313260888
:10286000831203179B008316031325088312031793
:102870009A008316031324088312031799007A0819
:10288000A00079089F0078089E0077089D000A1232
:102890008A15031300200A168A117A088316A300EA
:1028A0007908A2007808A1007708A0000130D500BF
:1028B0000A128312D1200A167E088316D7007D08DB
:1028C000D6007C08D5007B08D4002308DB00220852
:1028D000DA002108D9002008D8000A128A158312CC
:1028E000DB250A168A117A088316D7007908D600E4
:1028F0007808D5007708D4005708831203179C0086
:10290000831603135608831203179B0083160313C1
:102910005508831203179A00831603135408831271
:1029200003179900A0019F0134309E0086309D005E
:102930000A128A15031346210A168A117A08831689
:10294000D7007908D6007808D5007708D400570852
:10295000831203179C008316031356088312031770
:102960009B00831603135508831203179A008316DE
:1029700003135408831203179900DB30A0000F30B3
:102980009F0049309E0080309D000A1203132A27C1
:102990000A167A08EE007908ED007808EC0077084E
:1029A000EB0076088316D7007508D6007408D500AA
:1029B0007308D4002308DB002208DA002108D900BC
:1029C0002008D8000A128A158312DB250A168A11FC
:1029D0007A088316D7007908D6007808D5007708DA
:1029E000D4005708831203179C008316031356085C
:1029F000831203179B0083160313550883120317D2
:102A00009A00831603135408831203179900A00138
:102A10009F0134309E0086309D000A128A150313F0
:102A200046210A168A117A088316D7007908D6003B
:102A30007808D5007708D4005708831203179C0044
:102A4000831603135608831203179B008316031380
:102A50005508831203179A00831603135408831230
:102A600003179900DB30A0000F309F0049309E0013
:102A700080309D000A1203132A270A167A08F200F2
:102A80007908F1007808F0007708EF008A150A1637
:102A90007A2D83165508D9005408D8005908FA0031
:102AA0005808840083137A188317800803195C2D53
:102AB000D80A0319D90A4E2D5708FA00560884007F
:102AC00083137A188317800803197B2D5608840016
:102AD0008313571883170008DC00580884008313F9
:102AE000591883175C088000D80A0319D90AD60A36
:102AF0000319D70A5C2D58088400831359188317CB
:102B000080015408F8005508F90083120800831664
:102B1000DC010408DB005C10831B5C14550EF038EC
:102B2000D700D707E23ED800323EDA0055080F3909
:102B3000D807D807DA07E93ED900D907D907540ED4
:102B40000F39D907DA07D90DDA0DDA09DA0D540889
:102B50000F39DA07D70D0730D6000A30DA07D90364
:102B6000031CAE2DD907D803031CB22DD807D703F9
:102B7000031CB62DD707D603031CBA2DD63084000C
:102B8000831307305B055B138407DA3004020319F3
:102B90005B170008F700031DD52D5B1BD52D5B1AB5
:102BA000DF2DDB19D52D2030D82DDB155B12303011
:102BB000F707770883120C1EDB2D99008316840A11
:102BC0005B1FC52D831208008318E92DE9308400AE
:102BD0008313F701F801F901FA018316E901EA010B
:102BE000EB01EC0168086704660465040319282EEC
:102BF0002030ED000310E10DE20DE30DE40DE90DD1
:102C0000EA0DEB0DEC0D68086C02031D112E670830
:102C10006B02031D112E66086A02031D112E650842
:102C20006902031C222E6508E9026608031C660F70
:102C3000EA026708031C670FEB026808031C680FB1
:102C4000EC020314F70DF80DF90DFA0DED0BFA2D4A
:102C500069088000840A6A088000840A6B08800082
:102C6000840A6C0880008312080004088316D900C7
:102C70005808DB000319692E5708831203179C00BC
:102C8000831603135608831203179B00831603133E
:102C90005508831203179A008316031354088312EE
:102CA00003179900A0019F0120309E0082309D00F3
:102CB0000A128A15031346210A168A117A08831606
:102CC000D7007908D6007808D5007708D400DB0B48
:102CD0003C2E5708E4005608E3005508E20054086B
:102CE000E1006108B63CE100FA016208E500E21784
:102CF0000310E20CE30CE40CFA0CF90CF80CF70CE2
:102D0000E10B782EE51F8F2EF709F809F909FA096A
:102D1000F70A0319F80A0319F90A0319FA0A7A08D3
:102D2000D7007908D6007808D5007708D400D71FD7
:102D3000A62ED903D916D409D509D609D709D40A9C
:102D40000319D50A0319D60A0319D70A3B30E00044
:102D50009A30DF00CA30DE00DD010A30DB0058089F
:102D60000319D90A8314D430840083135708E4006C
:102D70005608E3005508E2005408E1006008E80046
:102D80005F08E7005E08E6005D08E5008312E425C1
:102D90007808F708031DE32E8316580A5B02031D0B
:102DA000D32E8312E32E59080319E62E0F395B0246
:102DB0000319DC2E0318222FD91B222F591BE62EB4
:102DC00020301B2F831220308316D905D91EF72EF1
:102DD000D9125808031DD9037708D9002D30831262
:102DE0000C1EF02E990083165908F700D9015808D7
:102DF0005B02031D082F7708D9002E3083120C1EAA
:102E0000FF2E990083165908F7002030D9050030AD
:102E10003030D91E1B2FD9125808031DD90377084B
:102E2000D9002D3083120C1E132F990083165908D8
:102E3000F700D9013030F707770883120C1E1E2FD8
:102E40009900831683106008E4005F08E3005E08C1
:102E5000E2005D08E100E801E701E6010A30E50073
:102E60008312E4257A088316E0007908DF007808E9
:102E7000DE007708DD00DB0BB22E83128A150A16FE
:022E8000032E1F
:103000004408003C03182428FF3A031D0B284308FA
:10301000F43C031824288316D401D50127308400FA
:1030200083135408840755080A128A118312042056
:103030000A168A1580000038031923288316D50A3A
:10304000D40A0E288312A2284408003C03185228F0
:10305000FF3A031D2F284308CC3C0318522844088C
:10306000013C031C5228031D39284308F33C031C70
:1030700052288316D401D5012730840083135408C5
:10308000840755080A128A1183120B200A168A1522
:1030900080000038031951288316D50AD40A3C2829
:1030A0008312A2284408003C03188028FF3A031D1D
:1030B0005D2843087C3C031880284408013C031C1D
:1030C0008028031D67284308CB3C031C80288316F7
:1030D000D401D50127308400831354088407550890
:1030E0000A128A11831212200A168A1580000038EB
:1030F00003197F288316D50AD40A6A288312A228C6
:103100004408013C031CA228031D8A2843087B3C79
:10311000031CA2288316D401D50127308400831311
:103120005408840755080A128A11831219200A16B6
:103130008A15800000380319A2288316D50AD40AFC
:103140008D2883124608003C0318C628FF3A031D49
:10315000AD284508F43C0318C6288316D401D501D0
:103160002A30840083135408840755080A128A11F0
:10317000831204200A168A15800000380319C52816
:103180008316D50AD40AB028831244294608003C85
:103190000318F428FF3A031DD12845088B3C031877
:1031A000F4284608013C031CF428031DDB284508CD
:1031B000F33C031CF4288316D401D5012A30840083
:1031C00083135408840755080A128A1183120B20AE
:1031D0000A168A15800000380319F3288316D50AC9
:1031E000D40ADE28831244294608003C0318222909
:1031F000FF3A031DFF284508223C031822294608F0
:10320000013C031C2229031D092945088A3C031C93
:1032100022298316D401D5012A308400831354084F
:10322000840755080A128A11831212200A168A1579
:1032300080000038031921298316D50AD40A0C29E5
:10324000831244294608013C031C4429031D2C29F0
:103250004508213C031C44298316D401D5012A309A
:10326000840083135408840755080A128A118312B4
:1032700019200A168A15800000380319442983167C
:10328000D50AD40A2F2983124808013C031868295B
:10329000FF3A031D4F2947084E3C0318682983163F
:1032A000D401D5012D3084008313540884075508B8
:1032B0000A128A11831204200A168A158000003827
:1032C000031967298316D50AD40A52298312DF29E4
:1032D0004808003C03189629FF3A031D7329470844
:1032E000A43C031896294808023C031C9629031D98
:1032F0007D2947084D3C031C96298316D401D5012E
:103300002D30840083135408840755080A128A114B
:1033100083120B200A168A1580000038031995299C
:103320008316D50AD40A80298312DF29C808031D11
:103330009D294708FA3C0318C0294808013C031C92
:10334000C029031DA7294708A33C031CC0298316D5
:10335000D401D5012D308400831354088407550807
:103360000A128A11831212200A168A158000003868
:103370000319BF298316D50AD40AAA298312DF2983
:10338000C608031DDF294508F93C031CDF29831605
:10339000D401D5012D3084008313540884075508C7
:1033A0000A128A11831219200A168A158000003821
:1033B0000319DF298316D50AD40ACA2983124A08B9
:1033C000013C0318032AFF3A031DEA294908583C27
:1033D0000318032A8316D401D501303084008313E7
:1033E0005408840755080A128A11831204200A1609
:1033F0008A15800000380319022A8316D50AD40AD8
:10340000ED2983127A2A4A08003C0318312AFF3A30
:10341000031D0E2A4908A93C0318312A4A08023C18
:10342000031C312A031D182A4908573C031C312A62
:103430008316D401D50130308400831354088407E7
:1034400055080A128A1183120B200A168A15800069
:1034500000380319302A8316D50AD40A1B2A83128E
:103460007A2ACA08031D382A4908FA3C03185B2A3D
:103470004A08013C031C5B2A031D422A4908A83C58
:10348000031C5B2A8316D401D501303084008313DA
:103490005408840755080A128A11831212200A164A
:1034A0008A158000003803195A2A8316D50AD40ACF
:1034B000452A83127A2ACA08031D7A2A4908F93C48
:1034C000031C7A2A8316D401D5013030840083137B
:1034D0005408840755080A128A11831219200A1603
:1034E0008A158000003803197A2A8316D50AD40A6F
:1034F000652A83124C08013C03189E2AFF3A031DDB
:10350000852A4B083A3C03189E2A8316D401D5011C
:103510003330840083135408840755080A128A1133
:10352000831204200A168A158000003803199D2A88
:103530008316D50AD40A882A8312152B4C08003C1E
:103540000318CC2AFF3A031DA92A4B088B3C031809
:10355000CC2A4C08023C031CCC2A031DB32A4B087E
:10356000393C031CCC2A8316D401D50133308400A6
:1035700083135408840755080A128A1183120B20FA
:103580000A168A15800000380319CB2A8316D50A3B
:10359000D40AB62A8312152BCC08031DD32A4B0854
:1035A000DC3C0318F62A4C08013C031CF62A031DD8
:1035B000DD2A4B088A3C031CF62A8316D401D50168
:1035C0003330840083135408840755080A128A1183
:1035D000831212200A168A15800000380319F52A72
:1035E0008316D50AD40AE02A8312152BCC08031DB2
:1035F000152B4B08DB3C031C152B8316D401D5017E
:103600003330840083135408840755080A128A1142
:10361000831219200A168A15800000380319152B09
:103620008316D50AD40A002B831203179801970139
:103630000C3096008530950003136E0803179C002C
:1036400003136D0803179B0003136C0803179A00FC
:1036500003136B08031799000A120313BD210A16FE
:10366000031C662B6E080317980003136D080317DD
:10367000970003136C080317960003136B080317D6
:1036800095009C019B0152309A00853099000A12E6
:103690000313BD210A16031C662B8316D401D50122
:1036A0003630840083135408840755080A128A119F
:1036B000831204200A168A15800000380319652B2E
:1036C0008316D50AD40A502B8312582C031798015D
:1036D0009701203096008430950003136E0803177D
:1036E0009C0003136D0803179B0003136C0803175A
:1036F0009A0003136B08031799000A120313BD21E4
:103700000A16031CB72B6E080317980003136D08E5
:103710000317970003136C080317960003136B0835
:10372000031795009C019B010C309A00853099008D
:103730000A120313BD210A16031CB72B8316D401EA
:10374000D5013630840083135408840755080A12C3
:103750008A1183120B200A168A158000003803197B
:10376000B62B8316D50AD40AA12B8312582C031723
:1037700098019701A03096008230950003136E08DF
:1037800003179C0003136D0803179B0003136C08B9
:1037900003179A0003136B08031799000A12031307
:1037A000BD210A16031C082C6E080317980003138A
:1037B0006D080317970003136C0803179600031393
:1037C0006B08031795009C019B0120309A00823002
:1037D00099000A120313BD210A16031C082C831634
:1037E000D401D5013630840083135408840755086A
:1037F0000A128A11831212200A168A1580000038D4
:103800000319072C8316D50AD40AF22B8312582CDD
:10381000031798019701DC3096008530950003135B
:103820006E0803179C0003136D0803179B00031316
:103830006C0803179A0003136B08031799000A1208
:103840000313BD210A16031C582C6E080317980099
:1038500003136D080317970003136C0803179600F2
:1038600003136B08031795009C019B01A0309A007D
:10387000853099000A120313BD210A16031C582C27
:103880008316D401D501363084008313540884078D
:1038900055080A128A11831219200A168A15800007
:1038A00000380319582C8316D50AD40A432C8312E6
:1038B0008316D7013630D600D501C530D40056085E
:1038C00084008313571883170008D8005408840015
:1038D0008313551883175808800080080319732C28
:1038E000D40AD60A5F2CD501C530D400D7013330B5
:1038F000D6008A11831249258A158316D501C53051
:10390000D400D7013030D6008A11831249258A1598
:103910008316D501C530D400D7012D30D6008A11C9
:10392000831249258A158316D501C530D400D701E5
:103930002A30D6008A11831249258A158316D501AB
:10394000C530D400D7012730D6008A11831249250B
:103950008A158A150A16852D03081F3983000A3037
:1039600083169900A6309800903083129800FF309B
:10397000A0000130CE002C30CD000230D0005830F5
:10398000CF000130D2007030D1000230D4001830A6
:10399000D3000130D600A430D5000230D80030303A
:1039A000D7000130DA008030D9000130DC00FE3071
:1039B000DB000130DE00AC30DD000230E000113011
:1039C000DF000130E200CC30E1000230E40043309F
:1039D000E3008316A701A6018030A500A400AB0177
:1039E000AA01A901A8003D30AF000A30AE00F730AF
:1039F000AD007F30AC003330B300B2007330B100A3
:103A00007F30B0002130B700B030B6008230B50052
:103A10008030B400F630BB002830BA007C30B900EA
:103A20007F30B800D730BF00A330BE008030BD006B
:103A3000BC008F30C300C230C2007530C1007F307F
:103A4000C000D2011F149F141F159F1107309C0046
:103A500083138312A101A20183161F109F141F114B
:103A60009F111F1383121F179F1383169F17831213
:103A70001F140A128A11E5280A168A1502308316C5
:103A8000D400FA30D5000A128A118312D1200A1606
:103A90008A158316D40B412D7530D4000A128A1171
:103AA00083127F290A168A1578088316D3005308D3
:103AB000683C0319692D2030831203178D000030F4
:103AC0008F000A128A110313F7290A168A15242E69
:103AD00083160A128A118312AD2A0A168A1501303A
:103AE0008316D5000A128A118312D1200A168A156C
:103AF0008A1100288A1501308316D5000A128A110E
:103B00008312D1200A168A15002801308316D500A9
:103B10000A128A118312D1200A168A1583165208B6
:103B2000023C031D172ED201613083120C1E962D0C
:103B300099001030840044088316D500831243088E
:103B40008316D4008A11831287258A1562300C1ED1
:103B5000A72D99001030840046088316D5008312E3
:103B600045088316D4008A11831287258A1563308D
:103B70000C1EB82D99001030840048088316D5001B
:103B8000831247088316D4008A11831287258A1569
:103B900064300C1EC92D9900103084004A08831629
:103BA000D500831249088316D4008A118312872511
:103BB0008A1565300C1EDA2D9900103084004C08EF
:103BC0008316D50083124B088316D4008A11831202
:103BD00087258A1566300C1EEB2D9900C9308400AC
:103BE0006E088316D70083126D088316D6008312E1
:103BF0006C088316D50083126B088316D400D80195
:103C00008A118312352E8A1567300C1E052E9900F5
:103C1000C530840083130A12C82F0A1668300C1EA0
:103C20000F2E99000A300C1E132E990083160130B6
:103C3000D2076430D5000A128A118312D1200A16E5
:0A3C40008A158316692D83126300B4
:02400E00323F3F
:00000001FF
;PIC16F877A
;CRC=69EB  CREATED="25-Jun-21 09:49"
